{
  "contractName": "MerkleTest",
  "abi": [
    {
      "inputs": [],
      "payable": false,
      "stateMutability": "nonpayable",
      "type": "constructor"
    },
    {
      "constant": true,
      "inputs": [
        {
          "name": "x_L",
          "type": "uint256"
        },
        {
          "name": "x_R",
          "type": "uint256"
        }
      ],
      "name": "LongsightF152p5",
      "outputs": [
        {
          "name": "",
          "type": "uint256"
        }
      ],
      "payable": false,
      "stateMutability": "view",
      "type": "function"
    },
    {
      "constant": true,
      "inputs": [
        {
          "name": "x_L",
          "type": "uint256"
        },
        {
          "name": "x_R",
          "type": "uint256"
        }
      ],
      "name": "LongsightF152p5x16",
      "outputs": [
        {
          "name": "",
          "type": "uint256"
        }
      ],
      "payable": false,
      "stateMutability": "view",
      "type": "function"
    }
  ],
  "bytecode": "0x609860808181526113a06040529060a061130080388339505081516200002d9260009250602001906200263a565b503480156200003b57600080fd5b507f1065f5d0b14f7381591cc29055b3dfd89851eb8ef6df71f3014539be9f9819ca6000808154811015156200006d57fe5b90600052602060002001819055507f1b2276ea065138a56d7837891b9461e68c2bb1ff1cadbf4b3250d9db5c68e41660006001815481101515620000ad57fe5b90600052602060002001819055507f1b5818c6be86908000154de8fa6ad6fcce2ed47ae4d2006fcd500f6a3e5fec3260006002815481101515620000ed57fe5b90600052602060002001819055507f15565adb2561a7dd57c244bc3ae16ab4e3ceceb23c6f8d643548b5273ae57b90600060038154811015156200012d57fe5b90600052602060002001819055507f2ce347dd98f694dcd13e26bfc3ae1b306af29e88ec6481dd4d00c590786e1c97600060048154811015156200016d57fe5b90600052602060002001819055507f278cbd277bd8d1538af19bd30755d13e3c750a076bfdfccd7998c2b499e3460560006005815481101515620001ad57fe5b90600052602060002001819055507f12be8ec52a528cffe4ce6f4a36f0de48d6e7772d9901df54956993db060a719c60006006815481101515620001ed57fe5b90600052602060002001819055507f2f6f9f861197fcdaedd50ef60a56ec32044b130d9a7130547e1f008121e7c8b1600060078154811015156200022d57fe5b90600052602060002001819055507f244be6d9b9aff4acb32fbefd1ec33d8576b85152a44eb46c6543e3e81cc9634f600060088154811015156200026d57fe5b90600052602060002001819055507f01828486b3899044878afd87494efd9072276432d3a011eeb66d75ab7b1c984360006009815481101515620002ad57fe5b90600052602060002001819055507f1c0088a8f3e8ea799ceecc35e9c174aa16cde1528f5013d8d9096304957271806000600a815481101515620002ed57fe5b90600052602060002001819055507f07d045a6df0e6cfa83c5963523ea18451c59a7516fdc694db9b2b57c6b38bed66000600b8154811015156200032d57fe5b90600052602060002001819055507f192cb90984c47c16b4559ea3eed912ce23d4f84ebfdc1ad9a9c5eca20cedc8486000600c8154811015156200036d57fe5b90600052602060002001819055507f030b2e9f992c6a90de66245cd30c0c3ed72535c740db9e7ea89a8fc12291d5836000600d815481101515620003ad57fe5b90600052602060002001819055507f2172101f02be5308848e59215338d6fe384dc86bd04151f8a162456d94f31e8c6000600e815481101515620003ed57fe5b90600052602060002001819055507f297b7c4a695b50a8be72dd434ec9421ee32c89462c4959d9a3d4f0307562376b6000600f8154811015156200042d57fe5b90600052602060002001819055507f2ced874b1ae4c4b4713512b7df1ebefaf20e9fe80b22ce506ec98df88e86f283600060108154811015156200046d57fe5b90600052602060002001819055507f239320518468e8a0d77ec50d05ae199915e1c26e16d2910c76ece8b64e4b4d8060006011815481101515620004ad57fe5b90600052602060002001819055507f304bc08f46bb8d59916b86dd97de329d85242fee7d9d027cfaac13ade79f1ad360006012815481101515620004ed57fe5b90600052602060002001819055507f20d955e7544e3dc0bbc898f84d0b25de6a4a5473777ebce4dfe6a39ee2d73210600060138154811015156200052d57fe5b90600052602060002001819055507f089d034c62aa31c3e138136ca3ef52c7d6a93bf8b05e9ba30ad022c1864d9d1e600060148154811015156200056d57fe5b90600052602060002001819055507f0ac8429e98b380f3ca34bc68629c12d830af6b39e29fecf6c70e7bc0d799f8ca60006015815481101515620005ad57fe5b90600052602060002001819055507f13d2afeb069d5296364f9ffbfc8bb1e8d71e4681f255f6485b300bbe08d23d8d60006016815481101515620005ed57fe5b90600052602060002001819055507f16178f342f317e26533e6d963ab9e84996d7dc5615423ffc3493af4bc987f3b3600060178154811015156200062d57fe5b90600052602060002001819055507f122882b224eadb377b0b3142e516aceecc8d4ec4f0a30c1e7e39e589994b59c8600060188154811015156200066d57fe5b90600052602060002001819055507f14fcc2777cf738cead6e639e4e4ec5ea2777f3eb53b7b7413774f9917637bd6e60006019815481101515620006ad57fe5b90600052602060002001819055507f0313f97843bfb423d6829f4c70234aeb37bac4a70565880bb16958a1273bb19f6000601a815481101515620006ed57fe5b90600052602060002001819055507e19f3277b4ddb64df9d437ece61b40b2825d1d4a32202c0c433b6985dc900be6000601b8154811015156200072c57fe5b90600052602060002001819055507f2068c6671f0bdf15d687ff3bd2d8662df34292098e5a2545da75a7930fba7aba6000601c8154811015156200076c57fe5b90600052602060002001819055507f066e2d0a3492686ed09c2dc5907fd20e25e94ab7e1719c3dfc432a48b27bf1836000601d815481101515620007ac57fe5b90600052602060002001819055507f2e1e9b4d85da6d3842d96aed17652486daa4be60301e160ad36e768e3b6cc67b6000601e815481101515620007ec57fe5b90600052602060002001819055507f175e452858729d91363cd6ab784429e93820f2d563e2ae68400d7a5426ee81e36000601f8154811015156200082c57fe5b90600052602060002001819055507f247febe4f9d9a5f5a8e2debf126601f8e7f5d2ee2947557e012463be91c78b3d600060208154811015156200086c57fe5b90600052602060002001819055507f1b168448bda46b228b9671ea514396a4b89692ac2a969b7a5c0079f240a999d360006021815481101515620008ac57fe5b90600052602060002001819055507f0a5f659976ac50c194d7c897dff21493e1e269aa231f17b5f793806c0ed77d5660006022815481101515620008ec57fe5b90600052602060002001819055507f01a25f2dc636d82bc13317db293f414ee228e2524630f7848a173f7bed4d02c9600060238154811015156200092c57fe5b90600052602060002001819055507f0e9b4f0f3663c1bfa348ba35ca5f2dbca0b676bea19e4a8d2caa4d339a81f3b6600060248154811015156200096c57fe5b90600052602060002001819055507f2bd24af8efdf88a9108cd1c4378d335135d67a34b7b2098efec4934b26354ff960006025815481101515620009ac57fe5b90600052602060002001819055507f0378c95a8575c64712cb7b52398585e15ebdc9baceeb7081574cd47a8296e13b60006026815481101515620009ec57fe5b90600052602060002001819055507f1706ad1227a9b25ba46f695da233059cb4a77ab74fb6ce4508261ca90125d3806000602781548110151562000a2c57fe5b90600052602060002001819055507f05a18d6f72a6286873f02cb08bc91169d44ecc19759c6b4d5b72fb33390a3c366000602881548110151562000a6c57fe5b90600052602060002001819055507f11582008da0b9ba84271dc10b2ccbdbaae343fb8fb0d44d38defae58bf7115136000602981548110151562000aac57fe5b90600052602060002001819055507f2660cc74d23919d8fcfa41709bbd1a726d8fac98ea48892083c975a3cf7869a36000602a81548110151562000aec57fe5b90600052602060002001819055507f279cdfeb2b5afe54abc1c0fde2cbda7c6c017956e7bc29d5c7c5dcd54ece0ab06000602b81548110151562000b2c57fe5b90600052602060002001819055507f1692e568cebdf2a4e799af54eb311c5e7e95e51a927e93b95b4f97c53b2875076000602c81548110151562000b6c57fe5b90600052602060002001819055507f0a8e28fe6cfc14abd6517292072058f9edb746cc7586cb6725e9f7dee5ff444a6000602d81548110151562000bac57fe5b90600052602060002001819055507f21316da8b0924292c19043b6ecad6fb00772ebe32e6503208714885a026898cd6000602e81548110151562000bec57fe5b90600052602060002001819055507f0d8617d96bd2cbd05ca3900382749afd214da32d11934ea9f285107cc88780626000602f81548110151562000c2c57fe5b90600052602060002001819055507f0fe4c67c5e0331332fd9f5de2e9535a7c01dd8881c7de6c50553e058a5737c916000603081548110151562000c6c57fe5b90600052602060002001819055507f03b0bafa71d6332b6fa6d8be61163e11aaaeeb900c109779da11783484cbc3d56000603181548110151562000cac57fe5b90600052602060002001819055507f2aacfd631717c05379c57e46d05c9a98494b69c4993d0f51f9e4629af717eb286000603281548110151562000cec57fe5b90600052602060002001819055507f15ac8adde69ab46127e918bd0f849ba0956d303c3c73c3a89c441d66e7ce36166000603381548110151562000d2c57fe5b90600052602060002001819055507f1474dc35aead570ac9204c6a73423ff3f313d2c49078e96878934ac6529eb45b6000603481548110151562000d6c57fe5b90600052602060002001819055507f19dd18988feba4bb460f96f99f48c7245bf247e0d00d19147a476cd72bcc97476000603581548110151562000dac57fe5b90600052602060002001819055507f0be8cfe4e4139ab897bf89274088c30a5a0773f97d6f28ceff9d67450cd3213e6000603681548110151562000dec57fe5b90600052602060002001819055507f1610347bca98667740c8adc4d50cb4e43b7db5e2a17cf5880559595fd67bc7b26000603781548110151562000e2c57fe5b90600052602060002001819055507f2ca08af022d883e97ec20d26b151267b631df3ec8408a4ac121a76839a2823a76000603881548110151562000e6c57fe5b90600052602060002001819055507f2e881085ce1c3dff0279767b58c3c1a2a80edc718062390edae7b4ec8f16764a6000603981548110151562000eac57fe5b90600052602060002001819055507f136a16d9699f74322402d21ae34bb38c8a4e5488f0daae5438c14ae3821b00b76000603a81548110151562000eec57fe5b90600052602060002001819055507f2a9e7e17cea1c9b5d414ccaedba592b2e988ec6e4e69ed0388febc1466a066506000603b81548110151562000f2c57fe5b90600052602060002001819055507f161ff1a93006e34046c71e4126d0274a301b1d8b6c6f435def4748279b44b9906000603c81548110151562000f6c57fe5b90600052602060002001819055507f2be2e50d59d9b0dd714879c1a81a96ca7aa0ba423f559fb06ccda8db129b76956000603d81548110151562000fac57fe5b90600052602060002001819055507f1206eaa713cb1982b48d2d2767f3368a8e47fb20b8699c66dda942f53b98baa46000603e81548110151562000fec57fe5b90600052602060002001819055507f04944456e18d3acf1bccc1d6c30210a8f5209ed0fd2b844876d877993735c6186000603f8154811015156200102c57fe5b90600052602060002001819055507f12e73e5d73b7ae9dfae6f6a5535e7c2b34935a73fd711069ad012f5be38b85e1600060408154811015156200106c57fe5b90600052602060002001819055507f032c2818252afd9bd67694fffdcd5225018887a6f419bb7a977b73bbab605e6c60006041815481101515620010ac57fe5b90600052602060002001819055507f28d805216ab6becd06478959989957208f76e5fa7308c8d50bb7b8fbbe3cd4f860006042815481101515620010ec57fe5b90600052602060002001819055507f1ca2193bd1d22d4aab9501c4253540bfcc3fe8d9c129394dd6015e595fc5b69f600060438154811015156200112c57fe5b90600052602060002001819055507f0978d47730f2b6319685b673c6ed6370601e635a8d9392228655e177520f5fa5600060448154811015156200116c57fe5b90600052602060002001819055507f1b8bb2015b856c498debd98b64ebb43e9aca8cc36e442adbdc59f4b0ec023f8860006045815481101515620011ac57fe5b90600052602060002001819055507f0a526d634c56ac37ef994dcbd8f2ae344472458148a0efb1887da1a49ff700fb60006046815481101515620011ec57fe5b90600052602060002001819055507f0c323df986505344a21664eff49f4d2d025a689386ed7ea8d51529ecfb1c66a1600060478154811015156200122c57fe5b90600052602060002001819055507f1a84672d80f6e4b3783c18f30f357b01f71641544edcbc554e0d397ae84d2bb5600060488154811015156200126c57fe5b90600052602060002001819055507f05bc0ea7b73e0a54d565bd25150ae55eb311f77b5d5b6ece1a7b057635d1298460006049815481101515620012ac57fe5b90600052602060002001819055507f059f0412b333bc9a4bbf12c18b2f0c4cd5bc020d1bd7bf1951481d666fc3481b6000604a815481101515620012ec57fe5b90600052602060002001819055507f23da6702a7c5b0f2a83474d7259b640c8b4f08b5c04000e43c892fc0b5616ff66000604b8154811015156200132c57fe5b90600052602060002001819055507f0b9fd57c90df36c77ee28afdf21f164d109a19aeb9c3d32b1c75187fc6f596106000604c8154811015156200136c57fe5b90600052602060002001819055507f18fd6555b94b574ba6edf078f6032456e317102074903352002ce43b741b0bbc6000604d815481101515620013ac57fe5b90600052602060002001819055507f07da42e69f7080b817484e4a21088b1295ae35b4fe6389cf69dfd2afe130c6006000604e815481101515620013ec57fe5b90600052602060002001819055507f2e732b3afbf2b5ff3f8bf5b4f3ed4de089870cd228bf08084f758d57553a40866000604f8154811015156200142c57fe5b90600052602060002001819055507f105e5a9369d3c8da0575ee061f33042655d32f0a17aa0124a6a98cecaf7db8cf600060508154811015156200146c57fe5b90600052602060002001819055507f170ebaf185c2485307037ad9d967960c7143357982a9d8c48395b6118f3d9cfe60006051815481101515620014ac57fe5b90600052602060002001819055507f171029506f0869bc9b65a70f69e5597a94cc5566595664aa415396d067bf175760006052815481101515620014ec57fe5b90600052602060002001819055507f2d153e985e26393ba9e2d2186775465b2be03334fd71e5cdf3f14b817918e009600060538154811015156200152c57fe5b90600052602060002001819055507f1109e4d6a8b454814e7ed0e131083e8cc74e27628e5cd221104437cfba51c9a3600060548154811015156200156c57fe5b90600052602060002001819055507f19c2af82ec557a33ed72bb86a2e62359c497b31e96b777f2fa5296d866d474c360006055815481101515620015ac57fe5b90600052602060002001819055507f15e0638ac980c68522d8c0c62f7654dc986b82b38ef90b39e848827ba5a5497760006056815481101515620015ec57fe5b90600052602060002001819055507f0c6927140508634374871ecf0c43747bac09e27e9ea62ad7e99c465eb11b3258600060578154811015156200162c57fe5b90600052602060002001819055507f1d35bf536acee3fd003e847196c866b169a48ab8d2c22339f1a776d213a9c2c1600060588154811015156200166c57fe5b90600052602060002001819055507f213e2504eaf40712239eb70f555c5d0bbc205f08ecd9e9f7664b06131669700b60006059815481101515620016ac57fe5b90600052602060002001819055507f1b6e42f575dff8f52e9d7022a14e54b53b29a449fbfee9b30e462eda3cadf0426000605a815481101515620016ec57fe5b90600052602060002001819055507f2cddb4d2893c1ddee4d61a0b0b8b909e9ca79e18165ffdb181313856af61714b6000605b8154811015156200172c57fe5b90600052602060002001819055507f08d472f7bbad64b06c55d985a76af5a4195a08c7476602e4d9515bfc5a95acc76000605c8154811015156200176c57fe5b90600052602060002001819055507f2acaaf6592b6ec4b8e826f0383228009d615c5a1a845c0565fcbc4e6ba52395e6000605d815481101515620017ac57fe5b90600052602060002001819055507f110b2f8df3685db7f2f218ed6ed7033d8e592f3150f1d5495ccdd2202229c1316000605e815481101515620017ec57fe5b90600052602060002001819055507f0a1180608279360868acbd0599f73d9d7b4d25bcfca83751ee10654c596b11f96000605f8154811015156200182c57fe5b90600052602060002001819055507f0b597a00edaeb058e47b952c6997e8a2c86197313c7b2aa534ec144da3cec070600060608154811015156200186c57fe5b90600052602060002001819055507f0c0057cd49d1ebb74319440a66de5b7776d1cbfce809831abc28b20f6f0fd08260006061815481101515620018ac57fe5b90600052602060002001819055507f1e258806df0e58c26ed2026c2e9acc60cdc6d0b4a04269761d3720464ed846d760006062815481101515620018ec57fe5b90600052602060002001819055507f0fbd3c400939348ef5f3f91b491a48c477bc2de98eed7d3b86f9b3c9de488e92600060638154811015156200192c57fe5b90600052602060002001819055507f0f61d4197ed6393cbb3977823a047ed577af154b56736cf43de0bf2c829c823d600060648154811015156200196c57fe5b90600052602060002001819055507f2700dd63450cea335eeecb6a6225c4316d25dc193d9a625deba4465b486d998e60006065815481101515620019ac57fe5b90600052602060002001819055507f0c2369e1f91fc6babc842b36d305ed720267898093ca00f71cad5b613a3411d560006066815481101515620019ec57fe5b90600052602060002001819055507f2fbdf64ba0c02ef9a6153934243e59a1a005a666407ff5c6d585a76799ad2df96000606781548110151562001a2c57fe5b90600052602060002001819055507f27599095a04f1538c7a6e6663de3bdee338859d54d461761a706a9081282e7726000606881548110151562001a6c57fe5b90600052602060002001819055507f06442ecb9f8b73be7885fc0cde891ca81207d758a13b1af920360dde157df2b16000606981548110151562001aac57fe5b90600052602060002001819055507e88b8090cf7f97f90a1ff3bbb1f84722180e84fa421bc86e409b0344062b8006000606a81548110151562001aeb57fe5b90600052602060002001819055507f2017d72608092ee4d524e265ed5a00472baab1030c7a9bc5770a11b4e148cba66000606b81548110151562001b2b57fe5b90600052602060002001819055507f22d934a4b8daef40719e8a237605fd0b2786f613adefd1d6277e66added618196000606c81548110151562001b6b57fe5b90600052602060002001819055507f175d6fda8155205484f5425c5bc3e84df0e22422591c54b84ff943973d6d89486000606d81548110151562001bab57fe5b90600052602060002001819055507f0cad57dfa9988e7fd6f663fa92d644d294f7db9d28f5c119a6b0315845830de16000606e81548110151562001beb57fe5b90600052602060002001819055507f141c52cd755d2f034fb9acb4438bf58f300c367637b82043cbc6498f39f965946000606f81548110151562001c2b57fe5b90600052602060002001819055507e85aa2c255d7b4bc07d69cadd9e5aae3801e3e64cce23aee4bcd40584325c586000607081548110151562001c6a57fe5b90600052602060002001819055507f2beb00f9e40515a0e35c0af2834ab3d39d0458bffcb215ff667408643d5b28066000607181548110151562001caa57fe5b90600052602060002001819055507f2262cd6d8ebd93fc849d5d77e3b49ab42ebd086f2999b45ce90be0dbb6f2c41a6000607281548110151562001cea57fe5b90600052602060002001819055507f0f20bb10e2e3b663e56d9ef3ddf8638a0ed9626af11fbce288c63ed5633710e46000607381548110151562001d2a57fe5b90600052602060002001819055507f1ec2d0751344c6a12ab0774068d43fcc3ff1eb9e842d64c239314ada23d794956000607481548110151562001d6a57fe5b90600052602060002001819055507f20dc52fe472b0b951fc5365c096ccb5ec910048a578f8e44d89d97b79990c1cb6000607581548110151562001daa57fe5b90600052602060002001819055507f1365ff5318aa60b991ede2cc35945acb871e6b313372a2d236c4fefce77b98206000607681548110151562001dea57fe5b90600052602060002001819055507f1a16d1c4775b155fd8d06a2aad46c425af17002ad1e871b9ca1ad0f818b7487d6000607781548110151562001e2a57fe5b90600052602060002001819055507f29df48a93ab9b2ec8a501f5da21392730c6ff73e59d58d35c94fa8630ca8e23d6000607881548110151562001e6a57fe5b90600052602060002001819055507f0ba223b7d1df0f7a0a792cceb738a1409ad0f4a7f93919865013182d9ae996186000607981548110151562001eaa57fe5b90600052602060002001819055507f1489c65cb2eb632b9c7db96067a0f31c6dcaca2a8c77273b9e755edaada7d5bd6000607a81548110151562001eea57fe5b90600052602060002001819055507f223f4abeba91db292bb631b23ef61079563be81ed1eb42a63be63d044cb95c006000607b81548110151562001f2a57fe5b90600052602060002001819055507f295c6cfa908fb5e3af0738739826099dc819f3c77753924175e5f97eba363e846000607c81548110151562001f6a57fe5b90600052602060002001819055507f0242877d6eeb7bb233f93873e9b4342d76a1b8c151a5116bac9e29665976e15f6000607d81548110151562001faa57fe5b90600052602060002001819055507f094c89750f2fbd15ceb3c8bee8346049d91533466286e347d41d64d2f95aab746000607e81548110151562001fea57fe5b90600052602060002001819055507e773b39aba174f220536c18529e922c7d51447bb0dcfedb51861238053501e76000607f8154811015156200202957fe5b90600052602060002001819055507f0b6b9165287fc9e339b520fe7d34e420b595de0f756827c05f40b200afec5a98600060808154811015156200206957fe5b90600052602060002001819055507f24948ef8a04ed8fd48d78b576d07fbb293a792fc1ffe4c9c67a328b7d3e5753760006081815481101515620020a957fe5b90600052602060002001819055507f0bd99e15d6341c167025d5a635fc80038b9c21591d2ce95a8c7e91eb4dc145c360006082815481101515620020e957fe5b90600052602060002001819055507f1e9fefeff9d597a0bb8bc7df91553328eb27eb4a9d66f53bf4e7aa5447c5697c600060838154811015156200212957fe5b90600052602060002001819055507f0dee91ed581cedb72eb34a30307fce47b7cd112f4809feaaa3dd7885521bd1c6600060848154811015156200216957fe5b90600052602060002001819055507f0a9ab5bf0b5a7774599229bf895b4a3d0aef69243ada5a597cf9f303218532ad60006085815481101515620021a957fe5b90600052602060002001819055507f1c5c7516a87da7f7b344e29d04f20cb03861adab4c8a02dd4e4acc8e868f27a760006086815481101515620021e957fe5b90600052602060002001819055507f14965eda94428bace990f9225ce69cc04e716a4bb9a86e62f61adbcc305cac14600060878154811015156200222957fe5b90600052602060002001819055507f1c6d4a4b575c07465096972fc183d946a79b856d36a53fa93657176898bcd671600060888154811015156200226957fe5b90600052602060002001819055507f1b38d46b5408d788e64c772749d2f1dc77cf4447b838ee0cc57b97bc5a8d2d0d60006089815481101515620022a957fe5b90600052602060002001819055507f258b73bb1a221c76b780e63e2b25611664cfffb64529cd447c3cb854261e77736000608a815481101515620022e957fe5b90600052602060002001819055507f10eb383164ca2ec5b2e4a4368558464bde08f290e98b735d4d5ac478a377935e6000608b8154811015156200232957fe5b90600052602060002001819055507f1f8d19083c02388c4538b05a788dd7ca50d660856f5828fcd850c8f07095eca36000608c8154811015156200236957fe5b90600052602060002001819055507f2c5a0c36cbb0afcd2c38672a3e4c0e69798aa7aa9c5c9ca3ad82472d571e630d6000608d815481101515620023a957fe5b90600052602060002001819055507f0d804b803cf5701fbca24e2c742ac651bde316252af90e48e3f1fa56749d91ae6000608e815481101515620023e957fe5b90600052602060002001819055507f12eede742adde2f8c65b2d9db3e7ee64a13863deb1fed692b16ddb812a4c06976000608f8154811015156200242957fe5b90600052602060002001819055507f0159d1dafab18faed3254e4d3dac9b1a448127004a4def0ea6da1f3d1ce8f186600060908154811015156200246957fe5b90600052602060002001819055507f2dc8279d7a6e5b0207f5617d5376e7f885582ba4bc1ca6db3e9acfbde18475dc60006091815481101515620024a957fe5b90600052602060002001819055507f1372d4a11212be0aeba0068c5a7dcde0fe172d4bbab1d1833de9ed2da701421c60006092815481101515620024e957fe5b90600052602060002001819055507f161bf000ed9d1d21230884ccbd1e6602dd4a2c22092006fd91ee36ec8bb20dc2600060938154811015156200252957fe5b90600052602060002001819055507f1fc74421642ef9325bfab14b66f157be2accf247a4f44c920eaa2ce036be6346600060948154811015156200256957fe5b90600052602060002001819055507f2aee89052965fe7dc9fa8e438131f933da655637959e0f9ab80b435bfdfa87f860006095815481101515620025a957fe5b90600052602060002001819055507f2f06f0bba3276294cc99fd8892a9b1c0803177a4adbe9b87a30cb0974371a55360006096815481101515620025e957fe5b90600052602060002001819055507ef9707e34bb092a7f282cdf851164805033f233750afbd90ee151c037329379600060978154811015156200262857fe5b600091825260209091200155620026aa565b82805482825590600052602060002090810192821562002678579160200282015b82811115620026785782518255916020019190600101906200265b565b50620026869291506200268a565b5090565b620026a791905b8082111562002686576000815560010162002691565b90565b6101c980620026ba6000396000f30060806040526004361061004b5763ffffffff7c010000000000000000000000000000000000000000000000000000000060003504166334bd57f68114610050578063f31fcf1d1461007d575b600080fd5b34801561005c57600080fd5b5061006b600435602435610098565b60408051918252519081900360200190f35b34801561008957600080fd5b5061006b600435602435610154565b6000808080805b60988410156101495760008051602061017e83398151915260008054869081106100c557fe5b90600052602060002001548808925060008051602061017e833981519152838409915060008051602061017e833981519152838309915060008051602061017e833981519152838309915060008051602061017e833981519152838309915086905060008051602061017e833981519152828708965094506001909201918461009f565b509495945050505050565b6000805b60108110156101755761016b8484610098565b9350600101610158565b509192915050560030644e72e131a029b85045b68181585d2833e84879b9709143e1f593f0000001a165627a7a723058202030caff750ea2f44d106b591b7503ba7b81647c9e3eca0b3bd410c7e716efe40029",
  "source": "pragma solidity ^0.4.24;\n\ncontract MerkleTest {\t\n\n\tuint256 constant curve_order = 0x30644e72e131a029b85045b68181585d2833e84879b9709143e1f593f0000001;\n\tuint[] round_constants = new uint[](152);\n\n\tfunction LongsightF152p5( uint256 x_L, uint256 x_R)\n\t\tpublic view returns(uint256)\n\t{\n\n\t\tuint256 i;\n\t\tuint256 t;\n\t\tuint256 j;\t\t\n\t\tuint256 tmp;\n\n\t\tfor( i = 0; i < 152; i++ )\n\t\t{\n\t\t\tt = addmod(x_L, round_constants[i], curve_order);\n\t\t\tj = mulmod(t, t, curve_order);\n\t\t\tj = mulmod(j, t, curve_order);\n\t\t\tj = mulmod(j, t, curve_order);\n\t\t\tj = mulmod(j, t, curve_order);\n\t\t\ttmp = x_L;\n\t\t\tx_L = addmod(x_R, j, curve_order);\n\t\t\tx_R = tmp;\n\t\t}\n\n\t\treturn x_L;\n\t}\n\n\tfunction LongsightF152p5x16( uint256 x_L, uint256 x_R)\n\t\tpublic view returns(uint256)\n\t{\n\n\t\tfor(uint i = 0; i < 16; i++ )\n\t\t{\n\t\t\tx_L = LongsightF152p5( x_L, x_R);\n\t\t}\n\n\t\treturn x_L;\n\t}\n\tconstructor() public\n\t{\n\t    round_constants[0] = 7417153685071709436870056242523351150140358124568764639615525440932715960778;\n\t    round_constants[1] = 12273340427312385197295762796385327795671962575811940024840593759546334831638;\n\t    round_constants[2] = 12368100453495145398686222132537215736731326260440990626828154738145801268274;\n\t    round_constants[3] = 9651145733155794490211326053576694361034818606667513183228325583794376899472;\n\t    round_constants[4] = 20303335619616155978381470742048315877812764167940323516909831488577167301783;\n\t    round_constants[5] = 17888865178356431883917545983695109758826770784880594328606968855647639258629;\n\t    round_constants[6] = 8478317580354501373176458292380558679149924902502061143928851622062985998748;\n\t    round_constants[7] = 21455924899758747089989225480346709914278429649550529318179397847520048040113;\n\t    round_constants[8] = 16417369350379315367522182891654869157788643412737589741990281968077844865871;\n\t    round_constants[9] = 682917629062576672829608733775287194360051408076591572059448215532451174467;\n\t    round_constants[10] = 12665702952792365399099327165160204890362383530457360553333158232311261720960;\n\t    round_constants[11] = 3534174848896419384928260291097360402585530849237567164316575670351859072726;\n\t    round_constants[12] = 11386839565127636504885004604778125396015888023999890510109826185644762581064;\n\t    round_constants[13] = 1376695646556886255839669708890960710789245325248530377671259442117541483907;\n\t    round_constants[14] = 15127855832621341439717249659608560463537393475674409716284640208948032642700;\n\t    round_constants[15] = 18763006803560074063046005439647925058939057435678112482302069006974132041579;\n\t    round_constants[16] = 20321441852601244372607410911049870819721093555961326058229243572778103665283;\n\t    round_constants[17] = 16090899272519902864744484156761129857296272389405265426000406021640532217216;\n\t    round_constants[18] = 21844859259875137552772738208511306802649970038290114392793224645779709172435;\n\t    round_constants[19] = 14858009852787010209240913484548153238423941781255619903407235170096127619600;\n\t    round_constants[20] = 3895920542421943018597275281244946074647060958213927965386153727618710347038;\n\t    round_constants[21] = 4876957689800114217585239241810719525039312286542638355755695376819742701770;\n\t    round_constants[22] = 8966196148580269733071597051623303364078459383088440750477351661943691296141;\n\t    round_constants[23] = 9992508507936618980262368485554384075304843461994692947052909495952330978227;\n\t    round_constants[24] = 8213207186873376674370077438124693040838058862120599832024438190183254022600;\n\t    round_constants[25] = 9492844592174836738004004534381654382718859706616882676923255121468091514222;\n\t    round_constants[26] = 1392230417149325234053624060264329385329811870545692021640862695990755045791;\n\t    round_constants[27] = 45849365405090124700721468208274048446838049012227284033194989496291623102;\n\t    round_constants[28] = 14659132575322212309890049958039718618962597001878062076141859446547516390074;\n\t    round_constants[29] = 2908541122346760753631035870025481721310654564399371432733658921014027612547;\n\t    round_constants[30] = 20860468307469641602742499609749664244164019911257166007787532601261365708411;\n\t    round_constants[31] = 10569756449714722041993500851534866630072110087062915023483726495822415561187;\n\t    round_constants[32] = 16509280209796076618646389572524052302898993948934291759353816969756518353725;\n\t    round_constants[33] = 12252230538778914302018943772047831648666753572157477261836385498635258403283;\n\t    round_constants[34] = 4691680170737213199062427298336160964015731256576292722835070307788129795414;\n\t    round_constants[35] = 739198973052305210272749213773139899862639322086073314926356051268559766217;\n\t    round_constants[36] = 6606786823294876799979229266195256254502506728954224324355521767149616100278;\n\t    round_constants[37] = 19821007813241945557010214650765993047288780193617682807043772926922753134585;\n\t    round_constants[38] = 1570349884989094651636410079583601855665422535709713017466319979548922798395;\n\t    round_constants[39] = 10414991091377820567651324652162561256475058358320941810791476912447394534272;\n\t    round_constants[40] = 2547002771208583964672073330006697377129808841049033501255187735066595441718;\n\t    round_constants[41] = 7845022062141551911453429755128156185283307470116152832401506005059932067091;\n\t    round_constants[42] = 17358916670130477544160076977373346440739580397991978466184881065742111893923;\n\t    round_constants[43] = 17917374666441479266138525808863097826742386025318629339542647877992859962032;\n\t    round_constants[44] = 10210425665809845167292580495111929375833382009871335167817174069666596287751;\n\t    round_constants[45] = 4774303698188947042063835014106664756186088744552103981528562359848631485514;\n\t    round_constants[46] = 15013656347639903130351822120528136849475183817209062094056321428149768853709;\n\t    round_constants[47] = 6116989140092301217799949835447781205749720800972087611202239105286550290530;\n\t    round_constants[48] = 7188903758229187317586137610379065486124311000425835028527430325518334131345;\n\t    round_constants[49] = 1669194105946370318508015637545243105077097546828523569264387618493292069845;\n\t    round_constants[50] = 19302786148931481892590684019559940395018750005577429780137168918620419910440;\n\t    round_constants[51] = 9803425938820015666552652915335420200382867307737686198439104730142912427542;\n\t    round_constants[52] = 9252731062648734326460850251372612101910484571280232427295746483705777927259;\n\t    round_constants[53] = 11698464170878494841320629727264716514369887689887224178941058825809619097415;\n\t    round_constants[54] = 5386784685825408467864467159688074900898857988869168087532640901292048458046;\n\t    round_constants[55] = 9979514450087564608802980748910771714339320977738152911251785421549150652338;\n\t    round_constants[56] = 20185419783081006932498696550953454662640391337685347107242331763636613686183;\n\t    round_constants[57] = 21046796270960519753618276383881475004224794458528653294877645932697725859402;\n\t    round_constants[58] = 8781387611800012433024378544832657792922153766738535323273554036145371414711;\n\t    round_constants[59] = 19277171738611529769313194029747619929747028152969289540664055203788985755216;\n\t    round_constants[60] = 10007322809998377168093862186310000486855039772692122928713977184647861549456;\n\t    round_constants[61] = 19850340785575438062453635882079820839231940029989379089750924430281207936661;\n\t    round_constants[62] = 8153851869928191594668519108354829795204447427615756565627340658107217394340;\n\t    round_constants[63] = 2071216420980625731083408257676702219199946500385214060549373884859850016280;\n\t    round_constants[64] = 8550203374197618805076197699711172830805974981127886360828631845780929086945;\n\t    round_constants[65] = 1434956537406879832911567747631523283573976586291202860478672602246523412076;\n\t    round_constants[66] = 18474188318971040498326422102494010954795128959426173313295945784384686970104;\n\t    round_constants[67] = 12951163141217810990740519670295365179421680761890026493813624671209959831199;\n\t    round_constants[68] = 4284303668636812405160499403400609483781784208434172474734948072393855164325;\n\t    round_constants[69] = 12459267201200368874783374465052219445199150634700836384496071869938431836040;\n\t    round_constants[70] = 4668764912570400877377148712853560163027599706127190842460136854934691184891;\n\t    round_constants[71] = 5516524269936881203267449218795451990579388055080543439088193855023629493921;\n\t    round_constants[72] = 11994069982368531651334343359275681617423971622270675023002720444526831152053;\n\t    round_constants[73] = 2593832637152287975752072197684114609069134156283834385698327029693474220420;\n\t    round_constants[74] = 2542521037352705685897896714306335678373873126972353913763785410439597475867;\n\t    round_constants[75] = 16216833311998102291662791292545529519146211962341842320583935942166937956342;\n\t    round_constants[76] = 5257843447977741403528105168165794690859632408277036851618241990427357320720;\n\t    round_constants[77] = 11303220060877584558709698626035245028390479088812623136152555812315257834428;\n\t    round_constants[78] = 3551824333042109470852406240424428172781769929056709738946164861897196750336;\n\t    round_constants[79] = 21009876812582817444585859584143918798798734480750420702234141462581999190150;\n\t    round_constants[80] = 7403714332849715309587058878778972200857894940349653824808708048331785222351;\n\t    round_constants[81] = 10429221612576132125028063044484726056766331274860067857660092944108998204670;\n\t    round_constants[82] = 10431750210540658163750845749060080474624949954855215145422683385603030980439;\n\t    round_constants[83] = 20391613990707807649694951405599212485252010662738353181604500934297076162569;\n\t    round_constants[84] = 7706799434860837579956815829571787323192757806454559455730941246103977314723;\n\t    round_constants[85] = 11651800880441285525536610182995157660930412370226623648496051478105517487299;\n\t    round_constants[86] = 9895030577340670358925719304581869365029283156472074930108815271125854800247;\n\t    round_constants[87] = 5613542832637397167833521947104544050671247288185688658633295166976967783000;\n\t    round_constants[88] = 13212035985824002768098696126854508734629745681232496430694565813381975622337;\n\t    round_constants[89] = 15036124018462131955083071688923157949380357499638452313583394878453461905419;\n\t    round_constants[90] = 12407262221733311455410381202712987045317736452140188040019860701137848889410;\n\t    round_constants[91] = 20293486529363480955663338971804183115934899086425805344672868778924595835211;\n\t    round_constants[92] = 3993867844354237910693091659368831635021555916761149555636172224922184428743;\n\t    round_constants[93] = 19355253291598568429755723505583033331300117279318057230423336623835725314398;\n\t    round_constants[94] = 7709081952692690648564639919627372849151273570499404639786979548014483980593;\n\t    round_constants[95] = 4554050911361626913171591846818043031753406488709990580391583551512038281721;\n\t    round_constants[96] = 5133532761266390878996194891406619586247331561492904944181820895109441306736;\n\t    round_constants[97] = 5428360169494587891130535937021932553694436933289629685110773645136427470978;\n\t    round_constants[98] = 13635697621648178330035052081270950847826626926654765863897125170761627616983;\n\t    round_constants[99] = 7119042655180848118475638831378329823163241579660022976761162813490569186962;\n\t    round_constants[100] = 6957540751614160604598621115329952574481203167204606201293827592886249357885;\n\t    round_constants[101] = 17641729056996610893834704880654622515183467729491535180060408710964074879374;\n\t    round_constants[102] = 5490324605856685861793010524330229446363694673175007443249552808586113192405;\n\t    round_constants[103] = 21594337847182971778768449052448045414791401414337331671599845580578430463481;\n\t    round_constants[104] = 17798448368901156082611597692658562318963722301480370763409944668282128885618;\n\t    round_constants[105] = 2834345661907675914312858220498307840694725827698732696279451138578978828977;\n\t    round_constants[106] = 241561366142948071664572160006720944009990194585820080390611553415298463744;\n\t    round_constants[107] = 14516133537943236664623339051197450632015568621015309774627377299273225391014;\n\t    round_constants[108] = 15762405996596779254336023997068448183910539228518679783726935460553468287001;\n\t    round_constants[109] = 10568284279172688416298619368642585745991151802088502026309028252542361766216;\n\t    round_constants[110] = 5734025207066670155969421234069585910343087830069283654430605234599480200673;\n\t    round_constants[111] = 9096300171828497773859695813024607718032513235287331088579410016257305044372;\n\t    round_constants[112] = 236165146667143767882839904157663995185896889598560259374558354820998257752;\n\t    round_constants[113] = 19864668286343389274752059597944120866534881841220750011968366472411381180422;\n\t    round_constants[114] = 15553205675846950966230740396258968167181880849069792177588431864826132874266;\n\t    round_constants[115] = 6842522916642154024489607771863497196720833416652714822203065803515647955172;\n\t    round_constants[116] = 13913592507648117009601455725148951368153520492714080447022152391992303654037;\n\t    round_constants[117] = 14863290307437539757792191691592764372208806151214018732939039300604493087179;\n\t    round_constants[118] = 8774157862216267538275739158538621980686797426906144843596232854705570289696;\n\t    round_constants[119] = 11800452460295708826891458036657613962999270001879476098644239264079261681789;\n\t    round_constants[120] = 18939335175511962320165921138323748038091399996171438671321023879830074614333;\n\t    round_constants[121] = 5261917075804436999731693005011674482968798738869149159024566420466968401432;\n\t    round_constants[122] = 9289684064474145000472875350329796229988550306160124892056113633645696636349;\n\t    round_constants[123] = 15490464088179712646217802324721323441125431020171778095342949525356002499584;\n\t    round_constants[124] = 18708128865689742523353197471028955101666440511313963772476259012495703162500;\n\t    round_constants[125] = 1022172720873280510702275071924020588528705594036898555757640772273365770591;\n\t    round_constants[126] = 4206044709335147970026691157560711105333353458102464239541203150469787724660;\n\t    round_constants[127] = 210663558534869764490178804880128176532871332902654566524321788877377700327;\n\t    round_constants[128] = 5165497450787176266636986278850531744608750268787642340860709279543780465304;\n\t    round_constants[129] = 16545742665515211269981774899682783145592507921872760606033403745273005831479;\n\t    round_constants[130] = 5359938212112779702295738602172677787733193743237422852230531029095311033795;\n\t    round_constants[131] = 13851970127912518553079246414084291170290443926934335075739753476430225566076;\n\t    round_constants[132] = 6301583785006745458650325360558316908228002555862491299858634772550690525638;\n\t    round_constants[133] = 4796477300442768605167993495406170519871764375304327404249170869853987615405;\n\t    round_constants[134] = 12828117805476628337279025271668848408629037112472413704250031463703558170535;\n\t    round_constants[135] = 9311938688420651610658414998917962721542897660718300561801254712237562309652;\n\t    round_constants[136] = 12857858850817992974318222960160773636430481847563170506708822323650088457841;\n\t    round_constants[137] = 12312856411165464853463516497808810953304704919784582845095353771453076811021;\n\t    round_constants[138] = 16981965884677111575212723064214481686054454401581652332740133323398730119027;\n\t    round_constants[139] = 7652602467002391800504671921589505850535449917546422819765009328148164612958;\n\t    round_constants[140] = 14270996507872904452758216195370259853763971982702674932946522601569557802147;\n\t    round_constants[141] = 20060865871738137102275880189400725361915325354185758765598371544002264457997;\n\t    round_constants[142] = 6106744544142983761131585714999990121660900678857306909901397569343846191534;\n\t    round_constants[143] = 8563676195473246462249996777449591192586134229923759112089963752670148429463;\n\t    round_constants[144] = 611010606004512643711355911931442600100715519058626064301594106348989641094;\n\t    round_constants[145] = 20707721012915313120356087722820048619763878722734637009860933546065992644060;\n\t    round_constants[146] = 8796832201147061610760510057159622441836519381725197741663463997379685990940;\n\t    round_constants[147] = 10000243983727752644950429698095403963058313600546892066937650065452305616322;\n\t    round_constants[148] = 14373771090952531208417128837232284300520723241730909009676716577905144914758;\n\t    round_constants[149] = 19418594920323449325449185011513449411864950744159548396683709369792136382456;\n\t    round_constants[150] = 21270966443617552677367273459164784057931628221880574776474664044046473864531;\n\t    round_constants[151] = 440721317227119536209338173221659451853756565591751100024804937685462586233;\n\t}\n}\n\n",
  "sourcePath": "/home/josojo/gnosis/testMIMC/contracts/MerkleTest.sol",
  "compiler": {
    "name": "solc",
    "version": "0.4.24+commit.e67f0147.Emscripten.clang"
  },
  "schemaVersion": "2.0.1",
  "updatedAt": "2018-08-16T05:47:38.690Z"
}